:020000040800F2
:100000000050002075050008190500081B050008B0
:100010001D0500081F05000821050008000000005C
:1000200000000000000000000000000023050008A0
:100030002505000800000000270500082905000824
:10004000BD050008BD050008BD050008BD05000888
:10005000BD050008BD050008BD050008BD05000878
:10006000BD050008BD050008BD050008BD05000868
:1000700031050008BD050008BD0500084105000860
:10008000BD05000851050008BD050008BD050008B4
:1000900061050008BD050008BD050008BD05000894
:1000A000BD050008BD050008BD050008BD05000828
:1000B000BD050008BD050008BD050008BD05000818
:1000C000BD050008BD050008BD050008BD05000808
:1000D000BD050008BD050008BD050008BD050008F8
:1000E000BD050008BD050008BD05000800000000B2
:1000F0000000000000000000000000000000000000
:0C01000000000000000000005FF808F1A3
:10010C0010B5054C237833B9044B13B10448AFF345
:10011C0000800123237010BD7C0100200000000032
:10012C008C45000808B5034B1BB103490348AFF3DA
:10013C00008008BD00000000800100208C450008F4
:10014C0070B594B000240D940F94109405940694FB
:10015C00079408940994019402940394049401253F
:10016C000A954FF480330B930C940E95022611963E
:10017C0012934FF4801313930AA801F023FC0F235E
:10018C000593069607944FF48063089309942946C7
:10019C0005A801F063FE102301934FF48003049330
:1001AC0001A801F033FF14B070BD000080B592B00F
:1001BC0000F026FAFFF7C4FF00240B940C940D9466
:1001CC000E945D4DAB6943F02003AB61AB6903F05A
:1001DC0020030293029BAB6943F00803AB61AB694C
:1001EC0003F008030393039BAB6943F00403AB6177
:1001FC00AB6903F004030493049B504E22464FF664
:10020C00FF61304600F06EFC01224FF480713046E5
:10021C0000F068FC4FF6FF730B9301270C970D94BD
:10022C0003230E930BA9304600F04CFB4FF4004314
:10023C000B930C940D970BA9414800F043FB4148DC
:10024C00414B03604FF4E13343608460C46004614C
:10025C000C2646618461C46102F042FA6B693B432F
:10026C006B616B693B400193019B224621463046F2
:10027C0000F0FCF9304600F02BFA224621460F2004
:10028C0000F0F4F90F2000F023FA22462146112049
:10029C0000F0ECF9112000F01BFA07940894099473
:1002AC000A94059406940B940C940D940E940F944C
:1002BC0010941194254D4FF080432B606C60AC6012
:1002CC00EC602C61AC61284601F0F6FF4FF48053D2
:1002DC00079307A9284602F0E8F8284602F018F818
:1002EC000594069405A9284602F082F960230B9325
:1002FC000C940D940F9422460BA9284602F062F838
:10030C0004220BA9284602F05DF803F0E7FE104D1D
:10031C00104C114E04E0304603F04EFF00232360D6
:10032C000B9500238DF8303005210BA803F044FF0A
:10033C0021680029F4D0EEE700100240000C0140C7
:10034C0000080140CC040020003801400C050020BE
:10035C0068690A00D801002098010020704700004D
:10036C0082B00E4B9A6942F001029A619A6902F0CE
:10037C0001020092009ADA6942F08052DA61DB697C
:10038C0003F080530193019B054A536823F0E0630B
:10039C0043F08063536002B0704700BF001002400E
:1003AC00000001400368B3F1804F00D0704710B5D6
:1003BC0082B0044603F50433DA6942F00102DA61D3
:1003CC00DB6903F001030193019B2C482C4B036068
:1003DC001023436000238360C3604FF48073036178
:1003EC004FF480634361202383614FF44053C36116
:1003FC0000F092F9002837D1204B23625C6221482F
:10040C00214B03601023436000238360C3604FF4CF
:10041C00807303614FF480634361202383614FF445
:10042C004053C36100F078F908BB164B63625C6201
:10043C001648174B03601023436000238360C3608E
:10044C004FF4807303614FF4806343612023836115
:10045C004FF44053C36100F05FF958B90B4BA362E2
:10046C005C62236302B010BDFFF778FFC4E7FFF7AF
:10047C0075FFDAE7FFF772FFF0E700BF44040020D6
:10048C001C00024000040020580002408804002098
:10049C008000024010B586B00023029303930493AE
:1004AC0005930268174B9A4201D006B010BD03F5B4
:1004BC0058439A6942F480429A619A6902F48042E4
:1004CC000092009A9A6942F004029A619B6903F0C7
:1004DC0004030193019B4FF40073029302230393D3
:1004EC0003230593084C02A9204600F0EBF94FF4C6
:1004FC008063029300230393049302A9204600F027
:10050C00E1F9D2E700380140000801407047FEE7EE
:10051C00FEE7FEE7FEE770477047704708B500F04E
:10052C0081F808BD08B5024800F02CF908BD00BFE1
:10053C004404002008B5024800F024F908BD00BFAF
:10054C000004002008B5024800F01CF908BD00BFEB
:10055C008804002008B5024800F078FB08BD00BFF5
:10056C00781C002070470000002103E00B4B5B5807
:10057C00435004310A480B4B42189A42F6D30A4AAC
:10058C0002E0002342F8043B084B9A42F9D3FFF7F0
:10059C00E9FF03F0BBFFFFF709FE70472046000898
:1005AC00000000207C0100207C010020641F002042
:1005BC00FEE7000010B504460E4B18784FF47A7322
:1005CC00B3FBF0F30C4A1068B0FBF3F000F08EF8BC
:1005DC0068B90F2C01D901200AE0002221464FF006
:1005EC00FF3000F043F8054B1C60002000E00120B8
:1005FC0010BD00BF040000200000002008000020F7
:10060C0008B5074A136843F010031360032000F089
:10061C001BF80020FFF7CEFFFFF7A2FE002008BD5D
:10062C0000200240034A1168034B1B780B441360F3
:10063C00704700BFE00F002004000020014B186839
:10064C00704700BFE00F00200749CA68030203F49B
:10065C00E06322F4E0621204120C134343F0BF6314
:10066C0043F40033CB60704700ED00E030B4164B20
:10067C00DB68C3F30223C3F10704042C28BF042452
:10068C001D1D062D8CBF033B00234FF0FF3505FAD3
:10069C0004F421EA0401994005FA03F322EA030267
:1006AC001143002809DB0901C9B200F1604000F5D3
:1006BC00614080F8001330BC704700F00F00090156
:1006CC00C9B2024B1954F6E700ED00E014ED00E05E
:1006DC00002808DB420900F01F00012303FA00F098
:1006EC00014B43F82200704700E100E00138B0F103
:1006FC00807F0AD2064B5860064AF02182F82310FC
:10070C000020986007221A6070470120704700BFD4
:10071C0010E000E000ED00E060B310B402460168A8
:10072C00154B0B441548A0FB03031B099B001364DA
:10073C00134BD363022382F82130086820F47F50D6
:10074C0020F03000536894682343D4682343146921
:10075C0023435469234394692343D46923430343B8
:10076C000B6000209063012382F8213082F8200076
:10077C0010BC704701207047F8FFFDBFCDCCCCCC2E
:10078C000000024038B5C36B1A6804682568016C18
:10079C0004238B40134234D015F0040F31D023685E
:1007AC0013F0200F03D1236823F0040323600368A4
:1007BC00424A934213D01432934217D014329342CC
:1007CC0016D01432934216D01432934216D01432EF
:1007DC0093420CBF4FF480034FF0806300E004237E
:1007EC00374A5360C36A03B1984738BD4023F7E7D3
:1007FC004FF48063F4E74FF48043F1E74FF4802328
:10080C00EEE702238B4013423BD015F0020F38D099
:10081C00236813F0200F06D1236823F00A0323600A
:10082C00012380F821300368244A934213D01432F8
:10083C0093421BD0143293421AD0143293421AD0E2
:10084C00143293421AD0143293420CBF4FF400135B
:10085C004FF0007300E00223194A5360002380F824
:10086C002030836A002BC0D09847BEE72023F3E7E3
:10087C004FF40073F0E74FF40053EDE74FF40033FF
:10088C00EAE7082303FA01F11142AED015F0080F84
:10089C00ABD0236823F00E032360C16B0123026CE1
:1008AC0003FA02F24A60836380F82130002380F857
:1008BC002030036B002B98D0984796E70800024035
:1008CC00000002402DE9F04F83B00F68002F00F0BC
:1008DC00F88000221346DFF800C27B4D7B4EDFF818
:1008EC00FCE1DFF8FC819AE000221EE0B4420CD05F
:1008FC0004D9744509D0444507D016E0744FBC4266
:10090C0003D007F57027BC420BD18A68002A00F08F
:10091C00CA80012A0CBFC0F81090C0F814900822AD
:10092C0003E0A7F58017BC42EFD0BAF1FF0F00F23D
:10093C00BC8007464FEA83093C684FF00F0B0BFA5B
:10094C0009FB24EA0B0402FA09F944EA09043C60A5
:10095C004C6814F0805F5DD0DCF8184044F0010462
:10096C00CCF81840DCF8184004F001040194019C08
:10097C0023F0030404F1804404F58034D4F8089087
:10098C0003F003074FEA870B0F2707FA0BF729EA47
:10099C000709504FB84200F08E8007F58067B842C7
:1009AC0000F08B8007F58067B84200F0888007F56F
:1009BC008067B8420CBF0327042707FA0BF747EAF6
:1009CC000907A7604C6814F4803F2C6814BF44EAF4
:1009DC000A0424EA0A042C604C6814F4003F6C6886
:1009EC0014BF44EA0A0424EA0A046C604C6814F448
:1009FC00801FAC6814BF44EA0A0424EA0A04AC6001
:100A0C004C6814F4001FEC6814BF44EA0A0424EA8E
:100A1C000A04EC6001330F6837FA03F451D04FF03D
:100A2C00010909FA03F909EA070A39EA0704F1D1BD
:100A3C004C68122C3FF65AAF122C3FF676AF01A73A
:100A4C0057F824F0170900089D0A0008A70A0008A7
:100A5C00F5080008370900083709000837090008AD
:100A6C00370900083709000837090008370900085A
:100A7C00370900083709000837090008370900084A
:100A8C003709000837090008A10A0008AD0A000858
:100A9C00CA684AE7CA68043247E7CA68083244E7BA
:100AAC00CA680C3241E704223FE7071D4FEA83096D
:100ABC00A9F1200940E700277FE701277DE70227FE
:100ACC007BE703B0BDE8F08F00040140000022106A
:100ADC00000012100008014000100240000031100C
:100AEC00000032100AB101617047090401617047BE
:100AFC00F0B587B000287AD0054690F8A932DBB162
:100B0C00032385F8A932286801F029FE2C4654F8F5
:100B1C00107B6E460FCC0FC6236833602B1D0ECB9B
:100B2C00384601F00CFE044658B1022385F8A93270
:100B3C000124204607B0F0BD80F8A83203F0D0FBAA
:100B4C00DEE70021286801F014FE686888B32346AC
:100B5C000126002103EB830205EBC20282F8296017
:100B6C0082F82830D38682F82B109163D16303EB83
:100B7C00830205EBC20211640133DBB28342E9D379
:100B8C00002204EB840305EBC30383F8692183F88B
:100B9C00684183F86B21C3F87821C3F87C2104EBFE
:100BAC00840305EBC303C3F880210134E4B284420F
:100BBC00E7D32C4654F8107B6E460FCC0FC6236837
:100BCC0033602B1D0ECB384601F0D5FD044620B109
:100BDC00022385F8A9320124ABE7002385F82430E1
:100BEC00012385F8A932286802F0BDF8A1E7012499
:100BFC009FE738B590F8A832012B11D00446012597
:100C0C0080F8A852006801F0A1FD2946204603F0A7
:100C1C007CFC206802F0A5F8002084F8A80238BDFE
:100C2C000220FCE790F8A832012B0DD010B5044639
:100C3C00012380F8A83280F82410006802F08BF8A9
:100C4C00002084F8A80210BD022070472DE9F0475F
:100C5C0084B00446006802F088F810F4004F40F0AD
:100C6C009A80206802F081F810F4806F40F02A849A
:100C7C00206802F07AF810F4804F08D02268B2F89D
:100C8C00443023F480431B041B0CA2F8443020682E
:100C9C0002F06BF810F4005F08D02268B2F8443010
:100CAC0023F400531B041B0CA2F84430206802F000
:100CBC005CF810F4805F40F01784206802F055F85F
:100CCC0010F4006F4ED026683146ADF102020DF1E2
:100CDC000E05134631F8040B23F8020F9D42F9D18F
:100CEC00B6F840309BB243F00103A6F840302168BF
:100CFC00B1F8403023F001031B041B0CA1F8403069
:100D0C002168B1F8443013F4806FFAD0B1F8443054
:100D1C0023F480631B041B0CA1F8443000232168CE
:100D2C0032F8020FC8520433202BF8D12268B2F8E3
:100D3C0040309BB243F00803A2F840302268B2F86E
:100D4C00443023F400631B041B0CA2F844302268CB
:100D5C00B2F840309BB243F00403A2F84030204676
:100D6C0003F016FB206802F000F810F4007F40F04E
:100D7C00DB83206801F0F9FF10F4807F08D0226833
:100D8C00B2F8443023F480731B041B0CA2F84430DB
:100D9C0004B0BDE8F0872068B0F8443013F4004F7D
:100DAC003FF45FAF002648F280074CF28008D9E38D
:100DBC0003889BB223F4E14323F070036FEA4343AF
:100DCC006FEA53439BB203802268B2F850309BB257
:100DDC0094F8281003EBC10302EB4303B3F804347B
:100DEC00C3F309036364E26B1344E36331462046A7
:100DFC0003F0AAFA94F82430002B00F0AC83236C97
:100E0C00002B40F0A88394F82430226843F0800330
:100E1C00A2F84C3084F824609DE3B0F850309BB2BB
:100E2C0094F8682103EBC20300EB4303B3F80C34D2
:100E3C00C3F30903C4F88431B4F86E2104F52C71A2
:100E4C0002F0F7FA2268138823F070031B051B0DC0
:100E5C0043F080031380204603F062FA7BE33E2AC2
:100E6C0008D8500812F0010F18BF0130820292B25C
:100E7C005A52CEE3500912F01F0F08BF00F1FF3099
:100E8C006FEAC0626FEA524292B25A52C1E330F832
:100E9C0025301FFA83F913F4004F4DD119F0800F50
:100EAC0000F05983226832F825309BB223F4E143D9
:100EBC0023F070036FEA43436FEA53439BB222F86B
:100ECC00253005EB850A04EBCA0A9AF82B30022B65
:100EDC0000F088812068B0F850309BB205EB850299
:100EEC0004EBC202126C9AF82810023303EBC10314
:100EFC0000EB4303B3F80034C3F309039A4240F206
:100F0C002083D21A05EB850104EBC1010A64002A87
:100F1C0000F01C8305EB850204EBC202D16B194473
:100F2C00D163516C0B445364013505EB850504EB1F
:100F3C00C50101F039FF0EE330F8253023F07003C2
:100F4C001B051B0D43F0800320F8253005EB8503B2
:100F5C0004EBC30393F87431002B45D12068B0F82F
:100F6C0050309BB205EB850204EBC20292F868216B
:100F7C00063303EBC20300EB4303B3F800A4CAF33C
:100F8C00090ABAF1000F23D105EB850304EBC30367
:100F9C00D3F884215244C3F88421D3F87C215244E1
:100FAC00C3F87C21D3F8803143B105EB850304EB06
:100FBC00C303D3F878319A4580F00A8105EB850399
:100FCC0004EBC30393F86811204603F0B1F965E70D
:100FDC0005EB850104EBC1015346B1F86E21D1F844
:100FEC007C1102F026FACFE705EB850304EBC30373
:100FFC0093F86B31022B37D005EB850204EBC20260
:10100C0092F86801216831F820309BB223F4E04358
:10101C0023F0700343F4004343F0C00321F8203065
:10102C00206892F8682130F8223013F4804F00F0D9
:10103C00B380B0F850309BB2023303EBC20300EB29
:10104C004303B3F800A4CAF3090ABAF1000F9BD00A
:10105C0005EB850104EBC1015346B1F87021D1F8C1
:10106C007C1102F0E6F98FE719F4804F4AD0226820
:10107C00B2F850309BB205EB850004EBC00090F841
:10108C006811023303EBC10302EB4303B3F800A472
:10109C00CAF3090AD0F880315345C0F02D83A3EB75
:1010AC000A0305EB850004EBC000C0F88031002B6F
:1010BC0000F0288319F0400F13D005EB850304EBE7
:1010CC00C30393F86811226832F821309BB223F4E1
:1010DC00E04323F0700343F4004343F0C00322F8D1
:1010EC002130BAF1000F3FF44FAF05EB850104EB53
:1010FC00C1015346B1F87021D1F87C11206802F07F
:10110C0098F941E72268B2F850309BB205EB8500A4
:10111C0004EBC00090F8681103EBC10302EB43032E
:10112C00B3F80CA4CAF3090AD0F880315345C0F0C7
:10113C00F682A3EB0A0305EB850004EBC000C0F8B4
:10114C008031002B00F0F18219F0400F13D105EB28
:10115C00850304EBC30393F86811226832F821303D
:10116C009BB223F4E04323F0700343F4004343F0B9
:10117C00C00322F82130BAF1000F3FF405AF05EBA4
:10118C00850104EBC1015346B1F87221D1F87C11F1
:10119C00206802F04EF9F7E6B0F850309BB20633F7
:1011AC0003EBC20300EB4303B3F800A4CAF3090A30
:1011BC00BAF1000F3FF4E8AE05EB850104EBC10179
:1011CC005346B1F87221D1F87C1102F032F9DBE60A
:1011DC0005EB850104EBC10101F5B471206801F048
:1011EC00E3FD5BE619F4807F3FF474AE19F0400F19
:1011FC0000F0B8802168B1F850309BB29AF828C042
:10120C0005EB850204EBC202106C03EBCC0301EB83
:10121C004303B3F80424C2F30902904240F21D8246
:10122C00801A05EB850304EBC3031864002800F057
:10123C00198219F4804F0AD031F82C309BB223F468
:10124C00E04323F0700348EA030321F82C3005EB4C
:10125C00850304EBC30393F84C30012B0FD09AF8A1
:10126C002810226832F821309BB223F4E04323F09B
:10127C00400383F030033B4322F821306BE105EB54
:10128C00850304EBC303D96B1144D963596C114426
:10129C005964996C9B6B994226D305EB850204EB40
:1012AC00C202C91A91649AF829209ABB2168B1F834
:1012BC0050C01FFA8CFC9AF82820100101F204414E
:1012CC00614401EB0212002B40F0BB81425A22F424
:1012DC00F8421204120C4252425A6FEA42426FEA2E
:1012EC00524292B2425217E039B905EB850304EB36
:1012FC00C30383F84C601346D5E705EB850304EB79
:10130C00C30383F84C609E649AF82920002A00F0ED
:10131C008C810B46012A18D005EB850204EBC20226
:10132C0011469BB2128EC96B206801F024FD96E722
:10133C00590913F01F0F08BF01F1FF316FEAC161AA
:10134C006FEA514189B21180E6E72268B2F8500089
:10135C0080B29AF82810090102F20442024498B2B1
:10136C008852D9E72068B0F850309BB29AF8281010
:10137C0005EB850204EBC202126C063303EBC103CE
:10138C0000EB4303B3F800C4CCF3090C6245C0F086
:10139C009881A2EB0C0205EB850304EBC3031A64E2
:1013AC00002A00F0938119F4804F0AD130F82130D3
:1013BC009BB223F4E04323F0700348EA030320F8C4
:1013CC00213005EB850304EBC30393F84C30012B60
:1013DC007FF445AF05EB850304EBC303DA6B624482
:1013EC00DA635A6C62445A64986C9B6B984228D3AB
:1013FC0005EB850204EBC202C01A90642268114608
:10140C009AF829C0BCF1000F34D1B2F8501089B24F
:10141C0002F20C420A449AF82810080102EB01115E
:10142C00002B40F04281115A21F4F8410904090CB7
:10143C001152115A6FEA41416FEA514189B211526E
:10144C001BE038B905EB850304EBC30383F84C6050
:10145C006346D3E705EB850304EBC3039E6483F873
:10146C004C60226811469AF829C0BCF1000F00F0BC
:10147C0010810346BCF1010F18D005EB850204EB7B
:10148C00C20211469BB2528EC96B206801F073FCEC
:10149C00E5E65A0913F01F0F08BF02F1FF326FEA9D
:1014AC00C2626FEA524292B20A80E6E7B2F850008A
:1014BC0080B29AF8282001EB021202F20C4299B287
:1014CC001152DAE72268B2F8443023F480631B042B
:1014DC001B0CA2F84430204602F047FF00212046A6
:1014EC00FFF7A0FBFFF7C4BB2268B2F8403023F033
:1014FC0004031B041B0CA2F840302268B2F84030E5
:10150C0023F008031B041B0CA2F84030204602F009
:10151C004FFF2268B2F8443023F480531B041B0C99
:10152C00A2F84430FFF7C9BB2268B2F8443023F468
:10153C0000731B041B0CA2F84430204602F00FFF72
:10154C0017E405EB850504EBC5052E649AF8281005
:10155C00204602F0F9FE2068B0F8443013F4004F36
:10156C003FF47FABB0F84450ABB215F00F057FF4ED
:10157C008EAC13F0100F3FF41BAC03889AB213F42B
:10158C00006F7FF44AAC12F4004FE4D0038823F0D0
:10159C0070031B051B0D43F0800303802068B0F81B
:1015AC0050309BB294F8682103EBC20300EB430369
:1015BC00B3F80C34C3F30903C4F884318BB1D4F8F9
:1015CC007C1171B1B4F86E2101F033FFD4F87C3189
:1015DC00D4F884211344C4F87C313146204602F0FF
:1015EC00A7FE2368B3F8501089B203F20C43D4F869
:1015FC007821002A7FF433AC5A5A22F4F8421204B0
:10160C00120C5A525A5A6FEA42426FEA524292B242
:10161C005A52226813889BB223F4804323F0700340
:10162C0083F440533B43138095E72368B3F8502071
:10163C0090B203F2044202449AF8283002EB0312EF
:10164C000B463E2B3FF674AE590813F0010F18BF32
:10165C000131890289B211805EE605EB850504EB48
:10166C00C5031E646146204602F06EFE19F4804FDD
:10167C003FF4F5AD9AF82810226832F821309BB26D
:10168C0023F4E04323F0700348EA030322F82130EB
:10169C00E5E5B2F850301FFA83FC9AF8281002F2F4
:1016AC000C43634403EB011103463E2B3FF6F1AEB2
:1016BC005A0813F0010F18BF0132920292B20A803D
:1016CC00DBE605EB850504EBC5031E64204602F042
:1016DC003BFE19F4804F7FF4C2AD9AF828102268B3
:1016EC0032F821309BB223F4E04323F0700348EA34
:1016FC00030322F82130B2E505EB850304EBC303A9
:10170C00C3F8806132F821309BB223F4804323F07C
:10171C00700383F400533B4322F82130CAE405EBF9
:10172C00850304EBC303C3F8806132F821309BB20C
:10173C0023F4804323F0700383F400533B4322F8DB
:10174C00213001E570B505460C4611F0800F25D10E
:10175C0001F0070000EB800105EBC10606F5B47142
:10176C003046002680F8696104F007040C700A61A9
:10177C00CB704A7802B1CC81022B04BF00230B71D1
:10178C0095F8A832012B13D0012385F8A8322868CC
:10179C0001F004F8002085F8A80270BD01F00700E4
:1017AC00013000EB800105EBC10101264E70DBE737
:1017BC000220F2E710B504460B4611F0800F1FD142
:1017CC0001F0070202EB820100EBC10101F5B471DB
:1017DC0002EB820200EBC202002082F8690103F0E6
:1017EC0007030B7094F8A832012B13D0012384F853
:1017FC00A832206801F04FF9002084F8A80210BD2F
:10180C0001F00702013202EB820100EBC101012061
:10181C004870E4E70220F2E738B501F0070404EB66
:10182C00840100EBC10101F5B47104EB840500EBFC
:10183C00C505C5F87C21C5F880310023C5F8843175
:10184C0085F8693185F86841006801F0ADFA00202F
:10185C0038BD01F0070101EB810100EBC101D1F8AA
:10186C008401704738B501F00704611C01EB81015C
:10187C0000EBC10104EB840500EBC505EA632B64A6
:10188C00012285F84C20AB6400236B6485F8292079
:10189C0085F82840006801F087FA002038BD38B57B
:1018AC0001F007054268954231D804460B4611F009
:1018BC00800F1ED101EB810100EBC10101F5B47168
:1018CC0003EB830300EBC303002283F8692101239C
:1018DC008B700D7094F8A832012B1AD0012384F868
:1018EC00A832206801F0C1F95DB1002084F8A8028B
:1018FC0038BD6B1C03EB830100EBC10101224A7064
:10190C00E5E704F52C71206801F033FAEDE70120CE
:10191C00EEE70220ECE70B4601F00F014268914222
:10192C0030D810B5044613F0800F21D103F0070214
:10193C0002EB820100EBC10101F5B47102EB8202F2
:10194C0000EBC202002082F8690100228A7003F0C9
:10195C0007030B7094F8A832012B15D0012384F8DF
:10196C00A832206801F0A6F9002084F8A80210BD66
:10197C0003F00702013202EB820100EBC1010120EE
:10198C004870E2E7012070470220F0E711F0800F69
:10199C000BD001F00701013101EB810100EBC1011A
:1019AC0052B90A73CB800020704701EB810100EB28
:1019BC00C10101F5B471F3E701220A730B811B0C11
:1019CC004B81F0E7002800F001822DE9F04182B054
:1019DC000446036813F0010F2CD0AA4B5B6803F08C
:1019EC000C03042B1DD0A74B5B6803F00C03082BD6
:1019FC0012D06368B3F5803F41D0002B55D103F171
:101A0C00804303F504331A6822F480321A601A6892
:101A1C0022F480221A6037E09A4B5B6813F4803F03
:101A2C00E7D0984B1B6813F4003F03D06368002B7E
:101A3C0000F0CE81236813F0020F75D0914B5B68D8
:101A4C0013F00C0F5FD08F4B5B6803F00C03082B6B
:101A5C0054D02369002B00F089808B4B01221A6033
:101A6C00FEF7ECFD0546874E336813F0020F74D178
:101A7C00FEF7E4FD401B0228F6D90320ADE1814AB4
:101A8C00136843F480331360636843B3FEF7D6FDE9
:101A9C0005467C4E336813F4003FCBD1FEF7CEFDE8
:101AAC00401B6428F6D9032097E1B3F5A02F09D089
:101ABC00744B1A6822F480321A601A6822F480225D
:101ACC001A60E1E703F18043A3F53C331A6842F452
:101ADC0080221A601A6842F480321A60D4E7FEF74A
:101AEC00ADFD0546674E336813F4003FA2D0FEF7F8
:101AFC00A5FD401B6428F6D903206EE1614B5B68A1
:101B0C0013F4803FA5D15F4B1B6813F0020F03D079
:101B1C002369012B40F05E815A4A1368616923F0F6
:101B2C00F80343EAC1031360236813F0080F3CD099
:101B3C00A369002B4FD0554B01221A60FEF77EFD96
:101B4C000546504E736A13F0020F21D1FEF776FD55
:101B5C00401B0228F6D903203FE14A4A1368616909
:101B6C0023F0F80343EAC1031360DDE7464B002280
:101B7C001A60FEF763FD0546424E336813F0020F00
:101B8C00D2D0FEF75BFD401B0228F6D9032024E1DE
:101B9C003F4B1B683F4AA2FB03235B0A019300BF28
:101BAC00019B5A1E0192002BF9D1236813F0040FEC
:101BBC0000F09C80334BDB6913F0805F1DD1314BFF
:101BCC00DA6942F08052DA61DB6903F080530093EA
:101BDC00009B012512E02D4B00221A60FEF72EFD12
:101BEC000546284E736A13F0020FDED0FEF726FD71
:101BFC00401B0228F6D90320EFE00025264B1B687A
:101C0C0013F4807F11D0E368012B22D0002B45D137
:101C1C0003F1804303F504331A6A22F001021A62BD
:101C2C001A6A22F004021A6218E01B4A136843F481
:101C3C0080731360FEF702FD0646174F3B6813F4E2
:101C4C00807FE0D1FEF7FAFC801B6428F6D90320D4
:101C5C00C3E00C4A136A43F001031362E368002BE0
:101C6C0032D0FEF7EBFC0646064F41F288383B6A51
:101C7C0013F0020F39D1FEF7E1FC801B4045F6D979
:101C8C000320AAE0001002400000424280044242BD
:101C9C0000000020D34D621000700040052B09D0CD
:101CAC00514B1A6A22F001021A621A6A22F00402DB
:101CBC001A62D3E74C4B1A6A42F004021A621A6A8F
:101CCC0042F001021A62C9E7FEF7B8FC0646464F1D
:101CDC0041F288383B6A13F0020F06D0FEF7AEFCD7
:101CEC00801B4045F6D9032077E0E5B9E369002B6A
:101CFC0072D03D4A526802F00C02082A56D0022BD0
:101D0C0017D03A4B00221A60FEF798FC0446364D69
:101D1C002B6813F0007F47D0FEF790FC001B0228C5
:101D2C00F6D9032059E0304AD36923F08053D361AC
:101D3C00DCE72E4B00221A60FEF780FC05462A4E8B
:101D4C00336813F0007F06D0FEF778FC401B0228A6
:101D5C00F6D9032041E0236AB3F5803F1AD022491B
:101D6C004A68236A606A034322F4741213434B607B
:101D7C001E4B01221A60FEF761FC04461A4D2B68BB
:101D8C0013F0007F0ED1FEF759FC001B0228F6D988
:101D9C00032022E0144A536823F40033A1680B4358
:101DAC005360DCE7002018E0002016E0012B17D070
:101DBC000D4B5B6803F48031226A914212D103F41B
:101DCC007013606A181A18BF012006E001207047D2
:101DDC00012002E0012000E0002002B0BDE8F0810B
:101DEC000120FAE70120F8E70010024060004242AF
:101DFC0086B0164B0FCB0DF1180C0CE90F0040F20E
:101E0C000123ADF80430124B5B6803F00C02082A76
:101E1C0002D0104806B07047C3F38342624412F8F4
:101E2C00102C13F4803F0CD0094B5B68094800FB65
:101E3C0002F0C3F34043634413F8143CB0FBF3F0DB
:101E4C00E8E7054800FB02F0E4E700BFBC450008EA
:101E5C000010024000127A0000093D00002800F03A
:101E6C00A2802DE9F0410D460446534B1B6803F04C
:101E7C0007038B420BD2504A136823F007030B4322
:101E8C001360136803F007038B4240F08E802368C5
:101E9C0013F0020F17D013F0040F04D0474A536805
:101EAC0043F4E0635360236813F0080F04D0434AF3
:101EBC00536843F460535360404A536823F0F00373
:101ECC00A1680B435360236813F0010F31D0626893
:101EDC00012A20D0022A25D0384B1B6813F0020FA0
:101EEC0065D036494B6823F0030313434B60FEF770
:101EFC00A5FB0646314F41F288387B6803F00C0392
:101F0C006268B3EB820F14D0FEF798FB801B404540
:101F1C00F3D9032045E0294B1B6813F4003FE0D1B3
:101F2C0001203EE0254B1B6813F0007FD9D1012026
:101F3C0037E0214B1B6803F00703AB420AD91E4A5A
:101F4C00136823F007032B431360136803F0070394
:101F5C00AB422ED1236813F0040F06D0174A5368F6
:101F6C0023F4E063E1680B435360236813F0080F1C
:101F7C0007D0124A5368216923F4605343EAC10322
:101F8C005360FFF735FF0D4B5B68C3F303130C4A2B
:101F9C00D35CD8400B4B18600B4B1868FEF70AFB50
:101FAC000020BDE8F081012070470120F9E70120F5
:101FBC00F7E70120F5E700BF0020024000100240C7
:101FCC00A44500080000002008000020044B5B68BA
:101FDC00C3F30223034AD35C034A1068D84070470A
:101FEC0000100240B445000800000020044B5B6860
:101FFC00C3F3C223034AD35C034A1068D84070472A
:10200C0000100240B4450008000000202DE9F0410A
:10201C0082B00446036813F0010F34D03E4BDB69E9
:10202C0013F0805F47D13C4BDA6942F08052DA61A1
:10203C00DB6903F080530193019B0125374B1B682F
:10204C0013F4807F39D0344B1B6A13F4407311D0D6
:10205C00626802F440729A420CD02F4A136A23F43D
:10206C0040702F4901260E6000260E60106213F09E
:10207C00010F36D1284A136A23F4407361680B436D
:10208C001362002D3ED1236813F0020F06D0224AB2
:10209C00536823F44043A1680B435360236813F047
:1020AC00100F34D01C4A536823F48003E1680B43AF
:1020BC00536000202CE00025C0E7184A136843F455
:1020CC0080731360FEF7BAFA0646144F3B6813F49C
:1020DC00807FB8D1FEF7B2FA801B6428F6D90320B2
:1020EC0016E0FEF7ABFA06460B4F41F288383B6A16
:1020FC0013F0020FBED1FEF7A1FA801B4045F6D9B2
:10210C00032005E0D36923F08053D361BBE70020A3
:10211C0002B0BDE8F08100BF00100240007000402A
:10212C004004424270B4036A23F001030362036A61
:10213C004468826922F073020D682A4323F002037B
:10214C008D682B430B4DA84206D0446082614A68CF
:10215C004263036270BC704723F00803CD682B43C5
:10216C0023F0040324F440744D698E6935432C43E9
:10217C00EBE700BF002C014070B4036A23F48073BA
:10218C000362036A4468C26922F073020D682A4331
:10219C0023F400738D6843EA05230C4DA84206D046
:1021AC004460C2614A68C263036270BC704723F426
:1021BC000063CD6843EA052323F4806324F4405480
:1021CC004D698E69354344EA0514E9E7002C01405A
:1021DC0030B4036A23F480530362036A4468C2690F
:1021EC0022F4E6420D6842EA052223F400538D687E
:1021FC0043EA0533074DA84206D04460C2614A68E1
:10220C000264036230BC704724F480444D6944EA94
:10221C008514F2E7002C0140704700000368254A42
:10222C00904214D0B0F1804F2BD0A2F59432904252
:10223C0022D002F58062904237D023F080034A69A5
:10224C00134303608B68C3620B6883622AE023F03C
:10225C0070034A68134323F44073CA68134323F092
:10226C0080034A69134303608B68C3620B68836203
:10227C000A69104B1A6315E023F070034A68134384
:10228C0003E023F070034A68134323F44073CA68D5
:10229C00134323F080034A69134303608B68C362C2
:1022AC000B68836201234361704723F070034A6813
:1022BC001343EAE7002C014040B310B5044690F8F4
:1022CC003D30F3B1022384F83D30214651F8040B24
:1022DC00FFF7A4FF012384F8463084F83E3084F8DD
:1022EC003F3084F8403084F8413084F8423084F830
:1022FC00433084F8443084F8453084F83D30002075
:10230C0010BD80F83C30FEF74DF8DBE7012070473C
:10231C0040B310B5044690F83D30F3B1022384F875
:10232C003D30214651F8040BFFF778FF012384F868
:10233C00463084F83E3084F83F3084F8403084F8DE
:10234C00413084F8423084F8433084F8443084F8C7
:10235C00453084F83D30002010BD80F83C30FFF74C
:10236C005BFFDBE70120704770B4036A23F01003B6
:10237C000362036A4468826922F4E6420D6842EA09
:10238C00052223F020038D6843EA05130C4DA84267
:10239C0006D0446082614A688263036270BC7047F5
:1023AC0023F08003CD6843EA051323F0400324F4A3
:1023BC0040644D698E69354344EA8504E9E700BF02
:1023CC00002C014038B590F83C30012B60D004460D
:1023DC000D46012380F83C300C2A1AD8DFE802F0B5
:1023EC00071919191D1919193119191944000068FF
:1023FC00FFF798FE2268936943F008039361226803
:10240C00936923F0040393612268936929690B4350
:10241C009361002084F83C0038BD0068FFF7A4FFEE
:10242C002268936943F4006393612268936923F4EF
:10243C008063936122689369296943EA012393615C
:10244C00E7E70068FFF798FE2268D36943F00803BA
:10245C00D3612268D36923F00403D3612268D36962
:10246C0029690B43D361D4E70068FFF7B1FE2268FA
:10247C00D36943F40063D3612268D36923F4806386
:10248C00D3612268D369296943EA0123D361C0E788
:10249C000220C1E710B4846824F47F440A4342EA62
:1024AC0003222243826010BC704790F83C30012B11
:1024BC0000F09C8070B50446012380F83C30022368
:1024CC0080F83D300268936823F47F4323F0770350
:1024DC0093600B68602B54D036D8402B6CD01BD932
:1024EC00502B2AD103684868CE68196A1D6A25F0FA
:1024FC0001051D629A6922F0F00242EA061221F0EF
:10250C000A0101439A6119622268936823F07003EF
:10251C0043F05703936010E0202B02D00AD9302BE4
:10252C000BD121688A6822F07002134343F0070331
:10253C008B6002E033F01002F3D0012384F83D30BD
:10254C00002084F83C0070BD702B0ED0B3F5005FFA
:10255C00F3D1CB684A6889680068FFF79BFF226853
:10256C00936843F480439360E7E7CB684A688968D3
:10257C000068FFF78FFF2268936843F0770393603E
:10258C00DBE703684D68CE68186A20F0100018620B
:10259C0099691A6A21F4704141EA063122F0A002CD
:1025AC0042EA051299611A622268936823F070035B
:1025BC0043F067039360C0E703684868CE68196A04
:1025CC001D6A25F001051D629A6922F0F00242EAAB
:1025DC00061221F00A0101439A611962226893687C
:1025EC0023F0700343F047039360A6E70220704783
:1025FC0090F83C30012B2BD030B4012380F83C30C8
:10260C00022380F83D3004686368A26823F07003ED
:10261C000D682B43636003680E4CA3420AD0B3F1E0
:10262C00804F07D0A4F59434A34203D004F5806402
:10263C00A34204D122F0800249680A439A60012324
:10264C0080F83D30002380F83C30184630BC704791
:10265C0002207047002C014010B504460268136933
:10266C0023F44053C1680B4313610168CA68836843
:10267C00006903436069034322F4B05222F00C0258
:10268C001343CB602268536923F44073A1690B4355
:10269C0053612268104B9A421AD0FFF797FC00EB5B
:1026AC00800000EB800063689B00B0FBF3F32468B0
:1026BC000A48A0FB03214909642202FB11331B01C8
:1026CC003233A0FB0323090101EB5313A36010BDAC
:1026DC00FFF78CFCE3E700BF003801401F85EB518E
:1026EC0058B310B5044690F839300BB3242384F852
:1026FC0039302268D36823F40053D3602046FFF7A7
:10270C00ABFF2268136923F4904313612268536969
:10271C0023F02A0353612268D36843F40053D36037
:10272C000020E063202384F8393084F83A3010BD5F
:10273C0080F83830FDF7AEFED8E70120704784B042
:10274C0001A880E80E00002004B07047034600206A
:10275C00A3F844004FF43F42A3F840207047B0F870
:10276C00403023F47C535B045B0CA0F84030002019
:10277C0070470020704784B010B4044602A880E86B
:10278C000E000123A4F840300020A4F84000A4F867
:10279C004400A4F8500010BC04B0704770B4034659
:1027AC000D7830F8252092B222F4EC4222F070021F
:1027BC0092B2C87803285BD8DFE800F04F5602527B
:1027CC00002048F28004224323F825200D7833F8AA
:1027DC00252092B222F4E04222F070022A432243D6
:1027EC0023F825200A7B002A40F0A3804A78002A8F
:1027FC0040D0B3F85050ADB20A7803EB021202F598
:10280C008062CC886408640054530C7833F824201C
:10281C0012F0400F0CD033F8242092B222F4E04294
:10282C0022F0700242F4004242F0C00223F824204D
:10283C00CA78012A097833F8212092B222F4E042B6
:10284C0022F0400218BF82F0200242F4004242F013
:10285C00800223F8212070BC704742F40072B0E76C
:10286C0042F4C0620020ACE742F480620020A8E78A
:10287C000120A6E7B3F85050ADB20A7803EB021270
:10288C0002F58162CC88640864005453B3F850504C
:10289C00ADB20A7803EB021202F20C420C6984BB53
:1028AC00545B24F4F8442404240C5453545B6FEA12
:1028BC0044446FEA5444A4B254530C7833F82420A3
:1028CC0012F4804F0CD033F8242092B222F4E04260
:1028DC0022F0700242F4404242F0800223F824209D
:1028EC00097833F8212092B222F4804222F070024F
:1028FC0082F4405242F4004242F0800223F821203C
:10290C00A9E73E2C08D8660814F0010F18BF013651
:10291C00B602B6B25653D0E7660914F01F0F08BFC3
:10292C0006F1FF366FEAC6646FEA5444A4B25453FE
:10293C00C3E70C7833F8242092B222F4E04222F060
:10294C00700242F4014242F0800223F82420B3F8D2
:10295C005050ADB20A7803EB021202F580620C897A
:10296C00640864005453B3F85050ADB20A7803EBCA
:10297C00021202F581624C896408640054534A784F
:10298C00002A40D10C7833F8242012F4804F0CD05C
:10299C0033F8242092B222F4E04222F0700242F486
:1029AC00404242F0800223F824200C7833F8242093
:1029BC0012F0400F0CD033F8242092B222F4E042F3
:1029CC0022F0700242F4004242F0C00223F82420AC
:1029DC000D7833F8252092B222F4804222F0700256
:1029EC0082F4405248F28004224323F825200978CF
:1029FC0033F8212092B222F4E04222F0400222432A
:102A0C0023F8212027E70C7833F8242012F4804F88
:102A1C000CD033F8242092B222F4E04222F070025F
:102A2C0042F4404242F0800223F824200C7833F820
:102A3C00242012F0400F0CD033F8242092B222F450
:102A4C00E04222F0700242F4004242F0C00223F84D
:102A5C002420CA78012A0C7833F8242092B222F46C
:102A6C00E04222F0400218BF82F0200242F4004201
:102A7C0042F0800223F82420097833F8212092B206
:102A8C0022F4804222F0700242F4004242F08002B2
:102A9C0023F82120DFE60B7B002B46D14B7813B3B8
:102AAC000A7830F8223013F0400F0CD030F8223076
:102ABC009BB223F4E04323F0700343F4004343F050
:102ACC00C00320F822300A7830F822309BB223F46D
:102ADC00E04323F0400343F4004343F0800320F829
:102AEC002230002070470A7830F8223013F4804FDF
:102AFC000CD030F822309BB223F4E04323F0700367
:102B0C0043F4404343F0800320F822300A7830F835
:102B1C0022309BB223F4804323F0700343F4004330
:102B2C0043F0800320F82230DBE710B44B78002B05
:102B3C004ED10A7830F8223013F4804F0CD030F894
:102B4C0022309BB223F4E04323F0700343F4404360
:102B5C0043F0800320F822300A7830F8223013F04A
:102B6C00400F0CD030F822309BB223F4E04323F01A
:102B7C00700343F4004343F0C00320F822300A787A
:102B8C0030F822309BB223F4E04323F0700343F47B
:102B9C00004343F0C00320F822300C7830F8243086
:102BAC009BB223F4804323F0700348F2800213435A
:102BBC0020F82430097830F821309BB223F4E0431C
:102BCC0023F04003134320F82130002010BC704741
:102BDC000A7830F8223013F4804F0CD030F82230C1
:102BEC009BB223F4E04323F0700343F4404343F0DF
:102BFC00800320F822300A7830F8223013F0400F8E
:102C0C000CD030F822309BB223F4E04323F0700355
:102C1C0043F4004343F0C00320F822300A7830F824
:102C2C0022309BB223F4E04323F0700343F440437F
:102C3C0043F0800320F822300C7830F824309BB21B
:102C4C0023F4E04323F0400348F28002134320F8BE
:102C5C002430097830F821309BB223F4804323F0E0
:102C6C007003134320F82130AFE74B788BB10A780F
:102C7C0030F822309BB223F4E04323F0400383F07E
:102C8C00100343F4004343F0800320F8223000206B
:102C9C0070470A7830F822309BB223F4804323F03B
:102CAC00700383F4805343F4004343F0800320F813
:102CBC002230ECE70B7B002B4BD14B7833B30A78EB
:102CCC0030F8223013F0400F0CD030F822309BB289
:102CDC0023F4E04323F0700343F4004343F0C003B8
:102CEC0020F82230CB78012B33D00A7830F8223000
:102CFC009BB223F4E04323F0400383F0200343F41E
:102D0C00004343F0800320F8223022E00A7830F8A8
:102D1C00223013F4804F0CD030F822309BB223F4C5
:102D2C00E04323F0700343F4404343F0800320F866
:102D3C0022300A7830F822309BB223F4804323F0FF
:102D4C00700383F4405343F4004343F0800320F8B2
:102D5C0022300020704711B98023A0F84C3000209D
:102D6C0070470020704700207047B0F8440080B2D4
:102D7C0070470020704710B4013300EB42045B082D
:102D8C0010D004F580642246023104EB830411F860
:102D9C00010C11F8023C43EA002322F8043B0231F7
:102DAC009442F4D110BC7047F8B505460C464B78EC
:102DBC00012B35D00A7B002A40F01B828A690B69F3
:102DCC009A4286BFD11A1A460021A161B0F8503040
:102DDC009BB200F20C40184423781B01002A40F0EF
:102DEC00F081C25A22F4F8421204120CC252C25A96
:102DFC006FEA42426FEA524292B2C252227835F8DE
:102E0C0022309BB223F4804323F0700383F44053AD
:102E1C0043F4004343F0800325F822300020F8BD32
:102E2C000A698E69964228BF16460B7B5BB3CB783A
:102E3C00022B49D00B7830F8232012F0400F00F011
:102E4C00A381B0F8502091B200F20C420A441B014D
:102E5C00B1B2D1526289B3B261692846FFF78BFFD8
:102E6C006378002B40F09B81227835F822309BB29E
:102E7C0023F4E04323F0700343F4004343F0C00316
:102E8C0025F822300EE0B6B23346CA884969FFF7FE
:102E9C0072FFB5F8503099B22278120105F2044352
:102EAC000B44D652227835F822309BB223F4E043FF
:102EBC0023F0400383F0300343F4004343F08003DA
:102ECC0025F822300020AAE70B6A9A4280F03E8156
:102EDC000A7830F822309BB223F4E04323F07003DD
:102EEC0043F4014343F0800320F822300B6A9B1B10
:102EFC000B620B7830F8232012F0400F00F0938017
:102F0C004A786ABBB0F8502092B200F20C411144DE
:102F1C001B016EB9CA5A22F4F8421204120CCA529E
:102F2C00CA5A6FEA42426FEA524292B2CA5219E04E
:102F3C003E2E08D8720816F0010F18BF013292020B
:102F4C0092B2CA520EE0720916F01F0F08BF02F1BE
:102F5C00FF326FEAC2626FEA524292B2CA5201E089
:102F6C00012A2AD0B3B2628961692846FFF703FFB0
:102F7C00636933446361236A2269934286BF9A1B57
:102F8C003346002222626278002A38D1B5F85020EC
:102F9C0092B22078000105F204410A44BBB9815A6F
:102FAC0021F4F8410904090C8152815A6FEA41411C
:102FBC006FEA514189B2815223E0B0F8502091B2AE
:102FCC0000F20C420A441B01B1B2D152CAE73E2BAB
:102FDC0008D8590813F0010F18BF0131890289B2C2
:102FEC0081520EE0590913F01F0F08BF01F1FF3198
:102FFC006FEAC1616FEA514189B2815201E0012A45
:10300C0006D09BB2228961692846FFF7B4FE49E7D6
:10301C00B5F8502090B22178090105F2044202441F
:10302C0098B28852EDE74A786ABBB0F8502092B259
:10303C0000F2044111441B016EB9CA5A22F4F84241
:10304C001204120CCA52CA5A6FEA42426FEA524236
:10305C0092B2CA5219E03E2E08D8720816F0010F2F
:10306C0018BF0132920292B2CA520EE0720916F0E7
:10307C001F0F08BF02F1FF326FEAC2626FEA5242C1
:10308C0092B2CA5201E0012A2AD0B3B222896169F4
:10309C002846FFF770FE636933446361236A226933
:1030AC00934286BF9A1B3346002222626278002A22
:1030BC0038D1B5F8502092B22078000105F20C41BD
:1030CC000A44BBB9815A21F4F8410904090C815214
:1030DC00815A6FEA41416FEA514189B2815223E032
:1030EC00B0F8502091B200F204420A441B01B1B274
:1030FC00D152CAE73E2B08D8590813F0010F18BF5C
:10310C000131890289B281520EE0590913F01F0F67
:10311C0008BF01F1FF316FEAC1616FEA514189B219
:10312C00815201E0012A06D09BB26289616928466E
:10313C00FFF721FEB6E6B5F8502090B221780901D0
:10314C0005F20C42024498B28852EDE7097830F847
:10315C00212092B222F4E24222F0700242F40042A8
:10316C0042F0800220F82120B0F8502090B2217853
:10317C00090105F2044202449BB28B522289616917
:10318C002846FFF7F8FD8DE6B0F8502091B200F21A
:10319C0004420A441B01B1B2D15222895BE6012BD5
:1031AC007FF480AE227835F822309BB223F4E043D2
:1031BC0023F0700343F4404343F0800325F822309E
:1031CC0070E63E2A08D8510812F0010F18BF0131E1
:1031DC00890289B2C15211E6510912F01F0F08BFC2
:1031EC0001F1FF316FEAC1616FEA514189B2C152FD
:1031FC0004E6CA78022A3FD0012A40F018818A6975
:10320C0009698A4286BF501A0A460020A061002B29
:10321C007FF4F4ADB5F850309BB22678360105F248
:10322C0004401844002A40F0B780335A23F4F84382
:10323C001B041B0C3352335A6FEA43436FEA53435C
:10324C009BB233526378002B40F0E380B5F85020EA
:10325C0093B22178090105F20C421A448B5A23F4DB
:10326C00F8431B041B0C8B528B5A6FEA43436FEAD7
:10327C0053439BB28B52C1E5002B32D1B0F8503086
:10328C009BB20A78120100F204410B442169002917
:10329C0045D1D15A21F4F8410904090CD152D15A23
:1032AC006FEA41416FEA514189B2D1526378002BE8
:1032BC0065D1B5F850309BB22278120105F20C4161
:1032CC000B442169002942D1D15A21F4F841090457
:1032DC00090CD152D15A6FEA41416FEA514189B27E
:1032EC00D152E369002B3FF489AD227835F82210D6
:1032FC0044F2400303EA01008B4302D000287FF420
:10330C007DAD35F822309BB223F4E04323F07003FB
:10331C0043F4004343F0C00325F822306EE53E2908
:10332C0008D8480811F0010F18BF0130810289B28A
:10333C00D152BBE7480911F01F0F08BF00F1FF3055
:10334C006FEAC0616FEA514189B2D152AEE73E29B2
:10335C0008D8480811F0010F18BF0130810289B25A
:10336C00D152BEE7480911F01F0F08BF00F1FF3022
:10337C006FEAC0616FEA514189B2D152B1E7012BBA
:10338C00AFD1B5F8503099B22278120105F20C4346
:10339C000B44218AD152A4E73E2A17D8510812F0C7
:1033AC00010714BF4B1C0B469B029BB23352637834
:1033BC007BBBB5F850309AB205F20C43134422781B
:1033CC00120117BB890289B2995217E5510912F003
:1033DC001F070CBF01F1FF330B466FEAC3636FEAA3
:1033EC0053439BB2335263789BB9B5F850309BB2C0
:1033FC0005F20C421A442078000147B16FEAC16310
:10340C006FEA53439BB21352F8E40131DAE7013906
:10341C00F4E7012B7FF4F2ACB5F850309BB2217875
:10342C0003F20C4303EB011392B2EA52E6E40120DF
:10343C00F5E4F0B400EB420000F580665F0811D0B3
:10344C00881C35463C4635F8042B92B200F8022C09
:10345C00120A00F8012C0230013CF4D101EB4701B7
:10346C0006EB870613F0010F1CBF33880B70F0BC02
:10347C007047D0F8BC3283B110B5D0F8B84294F88C
:10348C000002FF2807D09B6894F801222146984738
:10349C00FF2384F80032002010BD0020704700008C
:1034AC0043230380004870474400002043230380DB
:1034BC000048704788000020432303800048704771
:1034CC00D80000200A23038000487047CC0000205D
:1034DC0038B50446D0F8B85201F00CF8C5F80C0217
:1034EC00D4F8B8324BB1D4F8BC32DB6805F50371B3
:1034FC00D5F804029847002038BD0220FCE7D0F82C
:10350C00B82212B338B501EB810300EB8303DB69FE
:10351C005BB1D0F8C04201EB810504EBC504A56B8F
:10352C00B3FBF5F405FB14331BB10020C2F81402F5
:10353C0038BD01EB810300EB83030024DC612346DF
:10354C00224600F0C7FF2046F2E702207047F0B594
:10355C0083B006460C46D0F8B87200238DF80730BD
:10356C00ADF804300B7813F0600527D0202D53D123
:10357C00CA88DAB113F0800F0CD0D0F8BC329B683B
:10358C00394660789847E2883946304600F063FD4A
:10359C00002544E04B7887F80032CB8887F801325D
:1035AC00CA88394600F06CFD002538E0D0F8BC32F2
:1035BC009B68002248789847002530E04F780A2F06
:1035CC0014D00B2F20D01FB100F058FA022526E0A2
:1035DC0090F89C32032B03D000F050FA02251EE029
:1035EC00022201A900F037FD3D4618E090F89C320C
:1035FC00032B03D000F042FA022510E001220DF15A
:10360C00070100F028FD0AE090F89C32032B06D04D
:10361C0000F034FA022502E000F030FA02252846C8
:10362C0003B0F0BD38B50446812100F01CFF002525
:10363C00E5620121204600F016FFC4F86C5182218E
:10364C00204600F010FF2564D4F8B8324BB1D4F802
:10365C00BC325B689847D4F8B80200F055FFC4F848
:10366C00B852002038BD70B50446037CABBB4FF498
:10367C0000730222812100F0EBFE0125E5624FF47C
:10368C00007302222946204600F0E2FEC4F86C5179
:10369C00082303228221204600F0DAFE0123236452
:1036AC004FF4077000F02CFF0546C4F8B80268B35D
:1036BC00D4F8BC321B6898470023C5F81432C5F8FF
:1036CC001832267CCEB94FF40073D5F804220121B0
:1036DC00204600F007FF304670BD402302228121B6
:1036EC0000F0B6FE0125E562402302222946204661
:1036FC0000F0AEFEC4F86C51CAE74023D5F80422A2
:10370C000121204600F0EEFE0026E4E70126E2E768
:10371C0019B1C0F8BC120020704702207047D0F8D5
:10372C00B832C3F80812C3F8102200207047D0F842
:10373C00B832C3F8041200207047D0F8B822A2B1F6
:10374C0008B5D2F814320BB1012008BD0123C2F820
:10375C001432D2F810320363B2F81032D2F80822C5
:10376C00812100F0B7FE0020EFE70220704710B572
:10377C00D0F8B82292B1047C44B94FF40073D2F85B
:10378C000422012100F0AEFE204610BD4023D2F8E9
:10379C000422012100F0A6FE0024F5E70224F3E741
:1037AC0098B108B50346D0F8B40210B10020C3F8A4
:1037BC00B40209B1C3F8B012012183F89C121A703B
:1037CC00184600F0FBFD002008BD0220704719B11F
:1037DC00C0F8B412002070470220704708B500F002
:1037EC002FFE002008BD08B5D0F8B4322BB11B68F1
:1037FC009847002818BF022008BD0220FCE708B536
:10380C00D0F8B4325B689847002008BD38B5044640
:10381C0000F52A75284600F01DF90123C4F89432EE
:10382C00B4F8AE32C4F8983294F8A81201F01F0321
:10383C00012B0ED0022B11D02BB101F080012046B0
:10384C0000F019FE03E02946204600F021F9002083
:10385C0038BD2946204600F0D5FAF8E7294620461F
:10386C0000F000FBF3E738B504460D4681BB134668
:10387C00D0F89422032A03D0052A22D0084631E03E
:10388C00D0F86011D0F8642191420BD9891AC0F894
:10389C0060118A428CBF8AB292B2194600F0FFFBCB
:1038AC0028461FE0D0F8B4321B691BB190F89C225B
:1038BC00032A04D0204600F0FAFB284612E0984771
:1038CC00F8E70021C0F8941200F0D5FD284609E075
:1038DC00D0F8B4329B6933B190F89C22032A04D1FE
:1038EC009847002038BD0220FCE70220FAE738B5E3
:1038FC0004460D46002952D11346D0F89422022AD0
:10390C000BD032F0040302D1802100F0B4FD94F806
:10391C00A032012B3ED0284638BD016A426A914242
:10392C001BD8C169B1FBF2F302FB13132BB98A420A
:10393C0003D8D0F8983299421CD3D4F8B432DB684F
:10394C001BB194F89C22032A21D08021204600F040
:10395C0092FD204600F0B6FBD9E78A1A026292B2B9
:10396C00194600F085FB00231A461946204600F044
:10397C00B9FDCCE70022114600F07AFB0021C4F817
:10398C0098120B460A46204600F0ACFDBFE72046D5
:10399C009847DAE7002384F8A0322846BCE7D0F831
:1039AC00B4325B6933B190F89C22032A04D1984756
:1039BC000020B1E70220AFE70220ADE770B5044666
:1039CC0040230022114600F043FD0125C4F8585154
:1039DC004026C4F86461334600228021204600F062
:1039EC0037FDA561666284F89C520023C4F89432BA
:1039FC006360C4F8A432D4F8B8322BB1D4F8B43222
:103A0C005B68002120469847002070BD017400209F
:103A1C00704790F89C3280F89D32042380F89C32D9
:103A2C000020704790F89C32042B04BF90F89D3214
:103A3C0080F89C320020704708B590F89C32032B1C
:103A4C0001D0002008BDD0F8B432DB69002BF8D0CF
:103A5C009847F6E70B7803704B784370CA788B78ED
:103A6C0003EB022343804A790B7903EB0223838017
:103A7C00CA798B7903EB0223C380704710B50446D7
:103A8C00802100F0F8FC0021204600F0F4FC10BD71
:103A9C0030B583B005460C460B7803F06003202B41
:103AAC0005D0402B03D05BB1FFF7E8FF05E0D5F85C
:103ABC00B4329B68214628469847002003B030BD9D
:103ACC004B78092B00F29881DFE813F05F01840139
:103ADC0096017B019601C9000A0096014001EE0097
:103AEC000023ADF806304A88130A013B062B00F27E
:103AFC00A480DFE803F004182CA2A2869300D0F86F
:103B0C00B0321B680DF10601007C9847BDF8062009
:103B1C00002A00F09F80E388002B40F0928028461A
:103B2C0000F0C5FAC9E7037C43B9D0F8B4329B6AFC
:103B3C000DF10600984702234370E7E7D0F8B43242
:103B4C00DB6A0DF10600984702234370DEE7D2B220
:103B5C00052A52D8DFE802F003101D2A3744D0F8AA
:103B6C00B0325B6823B10DF10601007C9847CDE7BC
:103B7C002146FFF783FFA0E7D0F8B0329B6823B152
:103B8C000DF10601007C9847C0E72146FFF776FF50
:103B9C0093E7D0F8B032DB6823B10DF10601007C5D
:103BAC009847B3E72146FFF769FF86E7D0F8B032B4
:103BBC001B6923B10DF10601007C9847A6E721464D
:103BCC00FFF75CFF79E7D0F8B0325B6923B10DF1F8
:103BDC000601007C984799E72146FFF74FFF6CE7F9
:103BEC00D0F8B0329B6923B10DF10601007C9847E7
:103BFC008CE72146FFF742FF5FE72146FFF73EFFC8
:103C0C005BE7037C33B9D0F8B4325B6B0DF1060083
:103C1C0098477BE72146FFF731FF4EE7037C43B91A
:103C2C00D0F8B4321B6B0DF1060098470723437094
:103C3C006CE72146FFF722FF3FE72146FFF71EFF07
:103C4C003BE79A4228BF1A46ADF8062001462846A3
:103C5C0000F001FAE388002B7FF42FAF5FE78B882D
:103C6C00EBB9CB88DBB94B887F2B18D890F89C220A
:103C7C00032A0DD0DCB280F89E42214600F022FCD3
:103C8C00284600F014FA34B1022385F89C3214E76C
:103C9C00FFF7F4FE11E7012385F89C320DE721466E
:103CAC002846FFF7EBFE08E78B78554A1370012B7B
:103CBC000DD890F89C22022A0CD0032A20D0FFF7B2
:103CCC00DDFE4F4B19782846FFF799FDF5E6FFF717
:103CDC00D5FEF2E68BB101214160032380F89C32C2
:103CEC00FFF781FD022803D0284600F0E0F9E4E656
:103CFC0021462846FFF7C2FEDFE600F0D8F9DCE6E5
:103D0C008BB1416801291ED0C9B2FFF778FD3C4B3D
:103D1C00197869602846FFF766FD02280ED0284600
:103D2C0000F0C5F9C9E6022380F89C3200214160FD
:103D3C00FFF765FD284600F0BAF9BEE62146284695
:103D4C00FFF79CFEB9E600F0B2F9B6E6CB88012B82
:103D5C0009D190F89C32022B08D873B92146284619
:103D6C00FFF78CFEA9E6FFF789FEA6E6032BF5D13B
:103D7C000122011D00F06FF99FE60146002341F876
:103D8C00083F012200F067F997E690F89C32013B5E
:103D9C00022B13D8CB88022B0DD10123C360D0F892
:103DAC00A4320BB10323C360022205F10C01284697
:103DBC0000F051F981E6FFF761FE7EE6FFF75EFE4B
:103DCC007BE64B88012B7FF478AEC0F8A43200F070
:103DDC006EF972E690F89C32013B022B09D84B88A5
:103DEC00012B7FF46AAE0023C0F8A43200F05FF917
:103DFC0063E6FFF743FE60E6FFF740FE5DE600BFBB
:103E0C00DC01002038B505460C460B7803F0600247
:103E1C00402A06D013F0400F03D0FFF72FFE0020EE
:103E2C0038BD95F89C32013B022B16D82379012B17
:103E3C000ED8D5F8B4329B68214628469847E388BB
:103E4C00002BECD10028EAD1284600F030F9E6E747
:103E5C0021462846FFF712FEE1E721462846FFF7E8
:103E6C000DFEDCE738B504460B7803F06003202B1D
:103E7C0005D0402B03D04BB1FFF700FE04E0D4F883
:103E8C00B4329B6820469847002038BD8A88D0B24F
:103E9C004B78012B31D0032B05D0002B56D020466C
:103EAC00FFF7ECFDF0E794F89C32022B05D0032BC6
:103EBC0013D02046FFF7E2FDE6E710F07F0F08D0A5
:103ECC000146204600F0D7FA8021204600F0D3FAB4
:103EDC00DAE72046FFF7D2FDD6E74B8823B910F07E
:103EEC007F0F01D0CB881BB1204600F0E0F8CBE768
:103EFC000146204600F0BFFAF6E794F89C32022BFC
:103F0C0005D0032B13D02046FFF7B8FDBCE710F00B
:103F1C007F0F08D00146204600F0ADFA80212046E4
:103F2C0000F0A9FAB0E72046FFF7A8FDACE74B88F4
:103F3C00002BA9D110F07F0F03D1204600F0B7F869
:103F4C00A2E70146204600F09EFAF6E794F89C3270
:103F5C00022B05D0032B18D02046FFF78FFD93E7DB
:103F6C0010F07F0F03D02046FFF788FD8CE712F08E
:103F7C00800F14BF04F1140104F5AA7100230B6027
:103F8C000222204600F067F87EE712F0800F1BD16A
:103F9C0000F00F0303EB830304EB8303D3F85831D6
:103FAC0033B300F07F0303EB830304EB830505F5C8
:103FBC00AA7510F07F0F1FD100232B600222294617
:103FCC00204600F048F85FE700F00F0303EB830393
:103FDC0004EB83039B693BB100F07F05013505EBD6
:103FEC00850504EB8505E4E72046FFF747FD4BE725
:103FFC002046FFF743FD47E70146204600F04BFA09
:10400C0010B101232B60D9E700232B60D6E708B34E
:10401C0070B4044603783BB1C0F101068319DBB2DE
:10402C0010F8015F002DF9D101335B0013800B7088
:10403C0003234B70207858B1022300255A1CD2B2AE
:10404C00C8540233DBB28D5414F8010F0028F5D19B
:10405C0070BC7047704710B513460222C0F894220A
:10406C00C36103620A46002100F034FA002010BD3F
:10407C0008B513460A46002100F02CFA002008BDB2
:10408C0010B513460322C0F89422C0F85C31C0F876
:10409C0060310A46002100F025FA002010BD08B559
:1040AC0013460A46002100F01DFA002008BD08B591
:1040BC000423C0F8943200231A46194600F00AFA79
:1040CC00002008BD08B50523C0F8943200231A4619
:1040DC00194600F007FA002008BD000008B50022C0
:1040EC000F491048FFF75CFB70B90F490D48FFF7FB
:1040FC006EFB60B90D490B48FFF70AFB50B9094834
:10410C00FFF76CFB48B908BDFCF728F9EDE7FCF7A5
:10411C0025F9EFE7FCF722F9F1E7FCF71FF9F2E7D5
:10412C002C010020E40F00200C0000201C010020BA
:10413C0000207047002070472DE9F04104460E46E0
:10414C00104D01462846FFF7F2FA2846FFF70FFB01
:10415C000D4F00253D60DFF834804FF48062294616
:10416C00404600F005FA367832462146404600F0CB
:10417C00F1F932462946204600F0FAF93E6028460D
:10418C00BDE8F081E40F0020D80100209801002048
:10419C0010B5064C002206492046FFF7C0FA054927
:1041AC002046FFF7C4FA002010BD00BFE40F00202A
:1041BC0090160020A8120020094BD3F8B832D3F87F
:1041CC0014320BB10120704710B5054C0A4601465C
:1041DC002046FFF7A4FA2046FFF7AFFA10BD00BF48
:1041EC00E40F002012230B80004870474801002088
:1041FC0004230B80004870475C010020AAB170B406
:10420C00144600234E1C1D46020FB0F1204F34BF44
:10421C003032373201F81320000106F81350013305
:10422C00DAB2A242F0D370BC7047704738B51A238B
:10423C000B800B4B186808331B68C01801D1094858
:10424C0038BD094B1D68074C0822A11CFFF7D6FF8F
:10425C00042204F112012846FFF7D0FFEFE700BF5C
:10426C00E8F7FF1F60010020ECF7FF1F08B50A46B6
:10427C0002490348FFF7CBFE004808BD781A00201E
:10428C00D045000810B50A46034C21460348FFF7F9
:10429C00BEFE204610BD00BF781A0020E84500087D
:1042AC0008B50A4602490348FFF7B1FE004808BDAD
:1042BC00781A0020FC45000808B50A460249034854
:1042CC00FFF7A5FE004808BD781A00200846000834
:1042DC0020B1022814BF0220012070477047000053
:1042EC0002680E4B9A4200D0704700B583B003F5BC
:1042FC00DA33DA6942F40002DA61DB6903F40003B1
:10430C000193019B002211461420FCF7AFF91420F5
:10431C00FCF7DEF903B05DF804FB00BF005C004065
:10432C0008B500F52C71D0F8E802FFF76FFA08BD5C
:10433C0008B501EB810300EBC303D3F87C21D0F863
:10434C00E802FFF790FA08BD08B501EB810300EB1A
:10435C00C303DA6BD0F8E802FFF7C9FA08BD08B559
:10436C00D0F8E802FFF768FB08BD10B50446836877
:10437C00022B09D10121D4F8E802FFF747FBD4F84E
:10438C00E802FFF71BFB10BDFBF7E8FFF2E70000AC
:10439C0010B50446D0F8E802FFF73BFBA36923B144
:1043AC00024A136943F00603136110BD00ED00E0EF
:1043BC0008B5D0F8E802FFF735FB08BD10B5044688
:1043CC001D48C0F8E842C4F8C0021C4B0360082327
:1043DC0043600223836000238361C3610362FCF7A3
:1043EC0087FB30BB182300221146D4F8C002FDF71E
:1043FC00CDFA582300228021D4F8C002FDF7C6FA6A
:10440C00C02300228121D4F8C002FDF7BFFA4FF47B
:10441C00887300220121D4F8C002FDF7B7FA4FF4DB
:10442C00807300228221D4F8C002FDF7AFFA00207D
:10443C0010BDFBF793FFD5E7781C0020005C004013
:10444C0008B5D0F8C002FCF7D4FBFFF741FF08BD5C
:10445C0010B514461A462346D0F8C002FDF772F97F
:10446C00FFF736FF10BD08B5D0F8C002FDF7A2F972
:10447C00FFF72EFF08BD08B5D0F8C002FDF70FFA04
:10448C00FFF726FF08BD08B5D0F8C002FDF743FAC8
:10449C00FFF71EFF08BDD0F8C03211F0800F08D115
:1044AC0001F07F0101EB810103EBC10191F86A017D
:1044BC00704701F07F01013101EB810103EBC10178
:1044CC008878704708B5D0F8C002FCF7ABFBFFF753
:1044DC00FFFE08BD08B5D0F8C002FDF7C3F9FFF721
:1044EC00F7FE08BD08B5D0F8C002FDF795F9FFF747
:1044FC00EFFE08BD08B5D0F8C002FDF7AAF908BD5B
:10450C0000487047E00100207047704770B50026E6
:10451C000C4D0D4C641BA410A64209D100F030F8D0
:10452C0000260A4D0A4C641BA410A64205D170BD8E
:10453C0055F8043B98470136EEE755F8043B98478D
:10454C000136F2E71846000818460008184600081D
:10455C001C4600080A44914200F1FF3300D1704719
:10456C0010B511F8014B914203F8014FF9D110BD70
:10457C0003460244934200D1704703F8011BF9E74C
:10458C00F8B500BFF8BC08BC9E467047F8B500BF34
:08459C00F8BC08BC9E46704704
:1045A40000000000000000000102030406070809DF
:1045B40000000000010203040203040506070809C1
:1045C4000A0B0C0D0E0F10100000000053544D3355
:1045D40032205669727475616C20436F6D506F722E
:1045E4007400000053544D6963726F656C656374A5
:1045F400726F6E696373000043444320436F6E66B9
:104604006967000043444320496E746572666163C0
:04461400650000003D
:044618003101000864
:04461C000D01000884
:104620000024F400010000001000000073360008B0
:10463000313600085B350008000000007F340008B8
:104640000B350008DD340008000000000000000009
:1046500000000000B9340008AD340008C53400087B
:10466000D134000809024300020100C032090400ED
:1046700000010202010005240010010524010001CF
:104680000424020205240600010705820308001025
:1046900009040100020A00000007050102400000B1
:1046A000070581024000000009024300020100C02A
:1046B0003209040000010202010005240010010576
:1046C00024010001042402020524060001070582DA
:1046D0000308001009040100020A00000007050198
:1046E0000200020007058102000200000A06000223
:1046F000000000400100000009074300020104C05F
:104700003209040000010202010005240010010525
:104710002401000104240202052406000107058289
:104720000308001009040100020A00000007050147
:104730000240000007058102400000009D41000882
:104740003D4100084141000845410008F141000891
:10475000FD410008914200087942000839420008F2
:10476000AD420008C54200081201000202020040EA
:1047700083044057000201020301000004030904FE
:104780001A0300000000000000000000000000000C
:0C4790000000000000000000000000001D
:040000050800057575
:00000001FF
